:100000000C943E000C9450000C9450000C94500042
:100010000C9450000C9450000C9450000C94500020
:100020000C9450000C9450000C9450000C94500010
:100030000C9450000C9435010C9450000C9450001A
:100040000C9450000C9450000C9450000C945000F0
:100050000C9450000C9450000C9450000C945000E0
:100060000C9450000C9450000C9450000C945000D0
:100070000C9450000C9450000C94500011241FBE9E
:10008000CFEFCDBFDFE3DEBF2CE3A0E0BCE301C0D8
:100090001D92A230B207E1F70E94E5000C94A8017E
:1000A0000C940000E0E0FAE09381916093839FEF6D
:1000B00096A3918191609183609560A7880F8F5F6F
:1000C00080830895CF93DF93D82F862FC42FF89481
:1000D000E0E4F4E090819860908394819860948348
:1000E000642F0E945200E0E0FAE0838584FFFDCF98
:1000F000E0E0FAE080A58C1B80A783858061838780
:10010000E0E4F4E08481877F8483E0E0FAE08385A3
:1001100084FFFDCFE0E0FAE080A58C1B80A78385FB
:100120008061838727E030E04D2F50E0A0E4B4E009
:10013000CA01022E02C0959587950A94E2F780FFC6
:1001400008C014968C911497886014968C93149719
:1001500007C014968C911497877F14968C931497EC
:10016000838584FFFDCF80A58C1B80A7838580615C
:10017000838721503109E0F6E0E4F4E0848188606F
:100180008483EBE0FAE0808180FFFDCF81E0809303
:100190000B0AE0E0FAE0838584FFFDCFE0E0FAE0BF
:1001A00083858061838710827894DF91CF91089551
:1001B000E0E4FAE08581816085838AE09AE18487C2
:1001C000958780818160808308951092003C109211
:1001D000013CE0E0F4E08081877F80838389886050
:1001E000838BE0E4F4E08081877F8083838988606B
:1001F000838B808583FDFDCFE0E4F4E0808188601F
:10020000808384818860848381818160818385810A
:10021000816085838DE890E20197F1F70000789482
:100220000E94D80081E4C0E4DAE001E42091003CBF
:100230003091013C232BD1F798819E7F988311E068
:10024000180F40E560E00E9462001B3509F4102F92
:100250008091003C9091013C01968093003C9093EA
:10026000013C0E94D800812FE1CF1F920F920FB660
:100270000F9211245F936F937F938F939F93AF930C
:10028000BF93EF93FF93E0E4FAE086818160868379
:100290008091003C9091013C01968093003C9093AA
:1002A000013C8091003C9091013C69E070E00E942B
:1002B00080018093003C9093013C8091003C9091A0
:1002C000013C892B79F48091440480FF06C0E0E46E
:1002D000F4E084818E7F848305C0E0E4F4E08481CF
:1002E00081608483FF91EF91BF91AF919F918F9136
:1002F0007F916F915F910F900FBE0F901F90189597
:1003000097FB072E16F4009407D077FD09D00E94C2
:10031000940107FC05D03EF4909581959F4F089578
:10032000709561957F4F0895AA1BBB1B51E107C0D3
:10033000AA1FBB1FA617B70710F0A61BB70B881F75
:10034000991F5A95A9F780959095BC01CD01089504
:04035000F894FFCF4F
:00000001FF
